{
  "address": "0xE4c3c91De9Eb9b92CedeE9ddB1e4d3388318151c",
  "abi": [
    {
      "inputs": [
        {
          "internalType": "string",
          "name": "baseURI_",
          "type": "string"
        }
      ],
      "stateMutability": "payable",
      "type": "constructor"
    },
    {
      "anonymous": false,
      "inputs": [
        {
          "indexed": true,
          "internalType": "address",
          "name": "user",
          "type": "address"
        },
        {
          "indexed": true,
          "internalType": "uint256",
          "name": "id",
          "type": "uint256"
        }
      ],
      "name": "DollarStoreKidsBurnt",
      "type": "event"
    },
    {
      "anonymous": false,
      "inputs": [
        {
          "indexed": true,
          "internalType": "address",
          "name": "user",
          "type": "address"
        },
        {
          "indexed": true,
          "internalType": "uint256",
          "name": "id",
          "type": "uint256"
        }
      ],
      "name": "DollarStoreKidsMinted",
      "type": "event"
    },
    {
      "anonymous": false,
      "inputs": [
        {
          "indexed": false,
          "internalType": "uint8",
          "name": "version",
          "type": "uint8"
        }
      ],
      "name": "Initialized",
      "type": "event"
    },
    {
      "anonymous": false,
      "inputs": [
        {
          "indexed": false,
          "internalType": "bool",
          "name": "mintStatus",
          "type": "bool"
        }
      ],
      "name": "MintToggled",
      "type": "event"
    },
    {
      "anonymous": false,
      "inputs": [
        {
          "indexed": true,
          "internalType": "address",
          "name": "previousGovernor",
          "type": "address"
        },
        {
          "indexed": true,
          "internalType": "address",
          "name": "proposedGovernor",
          "type": "address"
        }
      ],
      "name": "UpdatedGovernor",
      "type": "event"
    },
    {
      "inputs": [],
      "name": "CAPSULE_FACTORY",
      "outputs": [
        {
          "internalType": "contract ICapsuleFactory",
          "name": "",
          "type": "address"
        }
      ],
      "stateMutability": "view",
      "type": "function"
    },
    {
      "inputs": [],
      "name": "CAPSULE_MINTER",
      "outputs": [
        {
          "internalType": "contract ICapsuleMinter",
          "name": "",
          "type": "address"
        }
      ],
      "stateMutability": "view",
      "type": "function"
    },
    {
      "inputs": [],
      "name": "MAX_DSK",
      "outputs": [
        {
          "internalType": "uint16",
          "name": "",
          "type": "uint16"
        }
      ],
      "stateMutability": "view",
      "type": "function"
    },
    {
      "inputs": [],
      "name": "MINT_PER_ADDRESS",
      "outputs": [
        {
          "internalType": "uint8",
          "name": "",
          "type": "uint8"
        }
      ],
      "stateMutability": "view",
      "type": "function"
    },
    {
      "inputs": [],
      "name": "USDC",
      "outputs": [
        {
          "internalType": "address",
          "name": "",
          "type": "address"
        }
      ],
      "stateMutability": "view",
      "type": "function"
    },
    {
      "inputs": [],
      "name": "acceptGovernorship",
      "outputs": [],
      "stateMutability": "nonpayable",
      "type": "function"
    },
    {
      "inputs": [
        {
          "internalType": "address",
          "name": "",
          "type": "address"
        }
      ],
      "name": "alreadyMinted",
      "outputs": [
        {
          "internalType": "bool",
          "name": "",
          "type": "bool"
        }
      ],
      "stateMutability": "view",
      "type": "function"
    },
    {
      "inputs": [
        {
          "internalType": "uint256",
          "name": "id_",
          "type": "uint256"
        }
      ],
      "name": "burn",
      "outputs": [],
      "stateMutability": "nonpayable",
      "type": "function"
    },
    {
      "inputs": [],
      "name": "capsuleCollection",
      "outputs": [
        {
          "internalType": "contract ICapsule",
          "name": "",
          "type": "address"
        }
      ],
      "stateMutability": "view",
      "type": "function"
    },
    {
      "inputs": [],
      "name": "governor",
      "outputs": [
        {
          "internalType": "address",
          "name": "",
          "type": "address"
        }
      ],
      "stateMutability": "view",
      "type": "function"
    },
    {
      "inputs": [],
      "name": "isMintEnabled",
      "outputs": [
        {
          "internalType": "bool",
          "name": "",
          "type": "bool"
        }
      ],
      "stateMutability": "view",
      "type": "function"
    },
    {
      "inputs": [],
      "name": "mint",
      "outputs": [],
      "stateMutability": "payable",
      "type": "function"
    },
    {
      "inputs": [
        {
          "internalType": "address",
          "name": "",
          "type": "address"
        },
        {
          "internalType": "address",
          "name": "",
          "type": "address"
        },
        {
          "internalType": "uint256",
          "name": "",
          "type": "uint256"
        },
        {
          "internalType": "bytes",
          "name": "",
          "type": "bytes"
        }
      ],
      "name": "onERC721Received",
      "outputs": [
        {
          "internalType": "bytes4",
          "name": "",
          "type": "bytes4"
        }
      ],
      "stateMutability": "pure",
      "type": "function"
    },
    {
      "inputs": [
        {
          "internalType": "address",
          "name": "_token",
          "type": "address"
        }
      ],
      "name": "sweep",
      "outputs": [],
      "stateMutability": "nonpayable",
      "type": "function"
    },
    {
      "inputs": [],
      "name": "toggleMint",
      "outputs": [],
      "stateMutability": "nonpayable",
      "type": "function"
    },
    {
      "inputs": [
        {
          "internalType": "address",
          "name": "newOwner_",
          "type": "address"
        }
      ],
      "name": "transferCollectionOwnership",
      "outputs": [],
      "stateMutability": "nonpayable",
      "type": "function"
    },
    {
      "inputs": [
        {
          "internalType": "address",
          "name": "_proposedGovernor",
          "type": "address"
        }
      ],
      "name": "transferGovernorship",
      "outputs": [],
      "stateMutability": "nonpayable",
      "type": "function"
    },
    {
      "inputs": [
        {
          "internalType": "string",
          "name": "baseURI_",
          "type": "string"
        }
      ],
      "name": "updateBaseURI",
      "outputs": [],
      "stateMutability": "nonpayable",
      "type": "function"
    },
    {
      "inputs": [
        {
          "internalType": "address",
          "name": "metamaster_",
          "type": "address"
        }
      ],
      "name": "updateMetamaster",
      "outputs": [],
      "stateMutability": "nonpayable",
      "type": "function"
    },
    {
      "inputs": [
        {
          "internalType": "address",
          "name": "royaltyReceiver_",
          "type": "address"
        },
        {
          "internalType": "uint256",
          "name": "royaltyRate_",
          "type": "uint256"
        }
      ],
      "name": "updateRoyaltyConfig",
      "outputs": [],
      "stateMutability": "nonpayable",
      "type": "function"
    }
  ],
  "transactionHash": "0x12570b6173e817888122fc194bce3dbddd0ef0363e5793d0a125ea3cb4b96092",
  "args": [
    ""
  ],
  "numDeployments": 1,
  "solcInputHash": "2dac645098ac493b1f663ab4c1d8aaab",
  "bytecode": "0x60a060405260405162002ea838038062002ea88339818101604052810190620000299190620005ae565b60006200003b620002f360201b60201c565b905080600060026101000a81548173ffffffffffffffffffffffffffffffffffffffff021916908373ffffffffffffffffffffffffffffffffffffffff1602179055508073ffffffffffffffffffffffffffffffffffffffff16600073ffffffffffffffffffffffffffffffffffffffff167fd4459d5b8b913cab0244230fd9b1c08b6ceace7fe9230e60d0f74cbffdf849d060405160405180910390a350734ced59c19f1f3a9eebd670f746b737acf504d1eb73ffffffffffffffffffffffffffffffffffffffff1663601dcc78343060016040518463ffffffff1660e01b81526004016200012d92919062000712565b60206040518083038185885af11580156200014c573d6000803e3d6000fd5b50505050506040513d601f19601f820116820180604052508101906200017391906200079a565b73ffffffffffffffffffffffffffffffffffffffff1660808173ffffffffffffffffffffffffffffffffffffffff1681525050620001b781620002fb60201b60201c565b60805173ffffffffffffffffffffffffffffffffffffffff166323249fd9610d056040518263ffffffff1660e01b8152600401620001f6919062000827565b600060405180830381600087803b1580156200021157600080fd5b505af115801562000226573d6000803e3d6000fd5b5050505073a0b86991c6218b36c1d19d4a2e9eb0ce3606eb4873ffffffffffffffffffffffffffffffffffffffff1663095ea7b373b8cf4a28da322598fdb78a1406a61b72d6f6b396620f4240610d0561ffff1662000286919062000873565b6040518363ffffffff1660e01b8152600401620002a5929190620008e5565b6020604051808303816000875af1158015620002c5573d6000803e3d6000fd5b505050506040513d601f19601f82011682018060405250810190620002eb919062000943565b505062000a57565b600033905090565b6200030b620002f360201b60201c565b73ffffffffffffffffffffffffffffffffffffffff16600060029054906101000a900473ffffffffffffffffffffffffffffffffffffffff1673ffffffffffffffffffffffffffffffffffffffff16146200039d576040517f08c379a00000000000000000000000000000000000000000000000000000000081526004016200039490620009c5565b60405180910390fd5b60805173ffffffffffffffffffffffffffffffffffffffff166355f804b3826040518263ffffffff1660e01b8152600401620003da919062000a33565b600060405180830381600087803b158015620003f557600080fd5b505af11580156200040a573d6000803e3d6000fd5b5050505050565b6000604051905090565b600080fd5b600080fd5b600080fd5b600080fd5b6000601f19601f8301169050919050565b7f4e487b7100000000000000000000000000000000000000000000000000000000600052604160045260246000fd5b6200047a826200042f565b810181811067ffffffffffffffff821117156200049c576200049b62000440565b5b80604052505050565b6000620004b162000411565b9050620004bf82826200046f565b919050565b600067ffffffffffffffff821115620004e257620004e162000440565b5b620004ed826200042f565b9050602081019050919050565b60005b838110156200051a578082015181840152602081019050620004fd565b838111156200052a576000848401525b50505050565b6000620005476200054184620004c4565b620004a5565b9050828152602081018484840111156200056657620005656200042a565b5b62000573848285620004fa565b509392505050565b600082601f83011262000593576200059262000425565b5b8151620005a584826020860162000530565b91505092915050565b600060208284031215620005c757620005c66200041b565b5b600082015167ffffffffffffffff811115620005e857620005e762000420565b5b620005f6848285016200057b565b91505092915050565b600082825260208201905092915050565b7f446f6c6c61722053746f7265204b696473000000000000000000000000000000600082015250565b600062000648601183620005ff565b9150620006558262000610565b602082019050919050565b7f44244b0000000000000000000000000000000000000000000000000000000000600082015250565b600062000698600383620005ff565b9150620006a58262000660565b602082019050919050565b600073ffffffffffffffffffffffffffffffffffffffff82169050919050565b6000620006dd82620006b0565b9050919050565b620006ef81620006d0565b82525050565b60008115159050919050565b6200070c81620006f5565b82525050565b600060808201905081810360008301526200072d8162000639565b90508181036020830152620007428162000689565b9050620007536040830185620006e4565b62000762606083018462000701565b9392505050565b6200077481620006d0565b81146200078057600080fd5b50565b600081519050620007948162000769565b92915050565b600060208284031215620007b357620007b26200041b565b5b6000620007c38482850162000783565b91505092915050565b600061ffff82169050919050565b6000819050919050565b6000819050919050565b60006200080f620008096200080384620007cc565b620007e4565b620007da565b9050919050565b6200082181620007ee565b82525050565b60006020820190506200083e600083018462000816565b92915050565b7f4e487b7100000000000000000000000000000000000000000000000000000000600052601160045260246000fd5b60006200088082620007da565b91506200088d83620007da565b9250817fffffffffffffffffffffffffffffffffffffffffffffffffffffffffffffffff0483118215151615620008c957620008c862000844565b5b828202905092915050565b620008df81620007da565b82525050565b6000604082019050620008fc6000830185620006e4565b6200090b6020830184620008d4565b9392505050565b6200091d81620006f5565b81146200092957600080fd5b50565b6000815190506200093d8162000912565b92915050565b6000602082840312156200095c576200095b6200041b565b5b60006200096c848285016200092c565b91505092915050565b7f6e6f7420676f7665726e6f720000000000000000000000000000000000000000600082015250565b6000620009ad600c83620005ff565b9150620009ba8262000975565b602082019050919050565b60006020820190508181036000830152620009e0816200099e565b9050919050565b600081519050919050565b6000620009ff82620009e7565b62000a0b8185620005ff565b935062000a1d818560208601620004fa565b62000a28816200042f565b840191505092915050565b6000602082019050818103600083015262000a4f8184620009f2565b905092915050565b6080516123fd62000aab6000396000818161064c015281816108220152818161098401528181610a8c01528181610b4b01528181610c4601528181610d2401528181610e4c01526113b801526123fd6000f3fe60806040526004361061011f5760003560e01c806372abd21d116100a0578063b2ba4f9c11610064578063b2ba4f9c146103a2578063b6aa515b146103cd578063d3dd5fe0146103f6578063f3b27bc31461040d578063fce12644146104245761011f565b806372abd21d146102cf578063784e987f146102fa57806389a30271146103255780638d5cdc2614610350578063931688cb146103795761011f565b80631249c58b116100e75780631249c58b14610209578063150b7a0214610213578063346de50a1461025057806342966c681461027b57806358032084146102a45761011f565b806301681a621461012457806304dad9351461014d57806305c427b7146101765780630a398b88146101a15780630c340a24146101de575b600080fd5b34801561013057600080fd5b5061014b600480360381019061014691906117c1565b61044d565b005b34801561015957600080fd5b50610174600480360381019061016f91906117c1565b6105b3565b005b34801561018257600080fd5b5061018b6106d8565b604051610198919061184d565b60405180910390f35b3480156101ad57600080fd5b506101c860048036038101906101c391906117c1565b6106f0565b6040516101d59190611883565b60405180910390f35b3480156101ea57600080fd5b506101f3610710565b60405161020091906118ad565b60405180910390f35b610211610736565b005b34801561021f57600080fd5b5061023a60048036038101906102359190611963565b610a56565b6040516102479190611a26565b60405180910390f35b34801561025c57600080fd5b50610265610a6b565b6040516102729190611883565b60405180910390f35b34801561028757600080fd5b506102a2600480360381019061029d9190611a41565b610a7e565b005b3480156102b057600080fd5b506102b9610c44565b6040516102c69190611a8f565b60405180910390f35b3480156102db57600080fd5b506102e4610c68565b6040516102f19190611ac7565b60405180910390f35b34801561030657600080fd5b5061030f610c6e565b60405161031c9190611afe565b60405180910390f35b34801561033157600080fd5b5061033a610c73565b60405161034791906118ad565b60405180910390f35b34801561035c57600080fd5b5061037760048036038101906103729190611b19565b610c8b565b005b34801561038557600080fd5b506103a0600480360381019061039b9190611c9a565b610db3565b005b3480156103ae57600080fd5b506103b7610ed8565b6040516103c49190611d04565b60405180910390f35b3480156103d957600080fd5b506103f460048036038101906103ef91906117c1565b610ef0565b005b34801561040257600080fd5b5061040b61103a565b005b34801561041957600080fd5b50610422611143565b005b34801561043057600080fd5b5061044b600480360381019061044691906117c1565b61131f565b005b610455611444565b73ffffffffffffffffffffffffffffffffffffffff16600060029054906101000a900473ffffffffffffffffffffffffffffffffffffffff1673ffffffffffffffffffffffffffffffffffffffff16146104e4576040517f08c379a00000000000000000000000000000000000000000000000000000000081526004016104db90611d7c565b60405180910390fd5b60008173ffffffffffffffffffffffffffffffffffffffff166370a08231306040518263ffffffff1660e01b815260040161051f91906118ad565b602060405180830381865afa15801561053c573d6000803e3d6000fd5b505050506040513d601f19601f820116820180604052508101906105609190611db1565b90506105af600060029054906101000a900473ffffffffffffffffffffffffffffffffffffffff16828473ffffffffffffffffffffffffffffffffffffffff1661144c9092919063ffffffff16565b5050565b6105bb611444565b73ffffffffffffffffffffffffffffffffffffffff16600060029054906101000a900473ffffffffffffffffffffffffffffffffffffffff1673ffffffffffffffffffffffffffffffffffffffff161461064a576040517f08c379a000000000000000000000000000000000000000000000000000000000815260040161064190611d7c565b60405180910390fd5b7f000000000000000000000000000000000000000000000000000000000000000073ffffffffffffffffffffffffffffffffffffffff1663f2fde38b826040518263ffffffff1660e01b81526004016106a391906118ad565b600060405180830381600087803b1580156106bd57600080fd5b505af11580156106d1573d6000803e3d6000fd5b5050505050565b734ced59c19f1f3a9eebd670f746b737acf504d1eb81565b60346020528060005260406000206000915054906101000a900460ff1681565b600060029054906101000a900473ffffffffffffffffffffffffffffffffffffffff1681565b603360009054906101000a900460ff16610785576040517f08c379a000000000000000000000000000000000000000000000000000000000815260040161077c90611e2a565b60405180910390fd5b600061078f611444565b9050603460008273ffffffffffffffffffffffffffffffffffffffff1673ffffffffffffffffffffffffffffffffffffffff16815260200190815260200160002060009054906101000a900460ff161561081e576040517f08c379a000000000000000000000000000000000000000000000000000000000815260040161081590611e96565b60405180910390fd5b60007f000000000000000000000000000000000000000000000000000000000000000073ffffffffffffffffffffffffffffffffffffffff166361bc221a6040518163ffffffff1660e01b8152600401602060405180830381865afa15801561088b573d6000803e3d6000fd5b505050506040513d601f19601f820116820180604052508101906108af9190611db1565b9050610d0561ffff1681106108f9576040517f08c379a00000000000000000000000000000000000000000000000000000000081526004016108f090611f02565b60405180910390fd5b6001603460008473ffffffffffffffffffffffffffffffffffffffff1673ffffffffffffffffffffffffffffffffffffffff16815260200190815260200160002060006101000a81548160ff02191690831515021790555073b8cf4a28da322598fdb78a1406a61b72d6f6b39673ffffffffffffffffffffffffffffffffffffffff166382cd81bc347f000000000000000000000000000000000000000000000000000000000000000073a0b86991c6218b36c1d19d4a2e9eb0ce3606eb48620f4240876040518663ffffffff1660e01b81526004016109dc9493929190611f57565b6000604051808303818588803b1580156109f557600080fd5b505af1158015610a09573d6000803e3d6000fd5b5050505050808273ffffffffffffffffffffffffffffffffffffffff167f300d6a868354287e59fa2bf83ed2a511eb48b1d4c37ade589fbb5de6ecd679cd60405160405180910390a35050565b600063150b7a0260e01b905095945050505050565b603360009054906101000a900460ff1681565b6000610a88611444565b90507f000000000000000000000000000000000000000000000000000000000000000073ffffffffffffffffffffffffffffffffffffffff166342842e0e8230856040518463ffffffff1660e01b8152600401610ae793929190611faf565b600060405180830381600087803b158015610b0157600080fd5b505af1158015610b15573d6000803e3d6000fd5b5050505073b8cf4a28da322598fdb78a1406a61b72d6f6b39673ffffffffffffffffffffffffffffffffffffffff166358ba75ac7f0000000000000000000000000000000000000000000000000000000000000000846040518363ffffffff1660e01b8152600401610b88929190611fe6565b600060405180830381600087803b158015610ba257600080fd5b505af1158015610bb6573d6000803e3d6000fd5b50505050610bfc81620f424073a0b86991c6218b36c1d19d4a2e9eb0ce3606eb4873ffffffffffffffffffffffffffffffffffffffff1661144c9092919063ffffffff16565b818173ffffffffffffffffffffffffffffffffffffffff167f7cb99e32cc436a43fe66a663f0b2ed66d30d5edd1cf27495e0e3a579b9b2402960405160405180910390a35050565b7f000000000000000000000000000000000000000000000000000000000000000081565b610d0581565b600181565b73a0b86991c6218b36c1d19d4a2e9eb0ce3606eb4881565b610c93611444565b73ffffffffffffffffffffffffffffffffffffffff16600060029054906101000a900473ffffffffffffffffffffffffffffffffffffffff1673ffffffffffffffffffffffffffffffffffffffff1614610d22576040517f08c379a0000000000000000000000000000000000000000000000000000000008152600401610d1990611d7c565b60405180910390fd5b7f000000000000000000000000000000000000000000000000000000000000000073ffffffffffffffffffffffffffffffffffffffff16638d5cdc2683836040518363ffffffff1660e01b8152600401610d7d929190611fe6565b600060405180830381600087803b158015610d9757600080fd5b505af1158015610dab573d6000803e3d6000fd5b505050505050565b610dbb611444565b73ffffffffffffffffffffffffffffffffffffffff16600060029054906101000a900473ffffffffffffffffffffffffffffffffffffffff1673ffffffffffffffffffffffffffffffffffffffff1614610e4a576040517f08c379a0000000000000000000000000000000000000000000000000000000008152600401610e4190611d7c565b60405180910390fd5b7f000000000000000000000000000000000000000000000000000000000000000073ffffffffffffffffffffffffffffffffffffffff166355f804b3826040518263ffffffff1660e01b8152600401610ea39190612086565b600060405180830381600087803b158015610ebd57600080fd5b505af1158015610ed1573d6000803e3d6000fd5b5050505050565b73b8cf4a28da322598fdb78a1406a61b72d6f6b39681565b610ef8611444565b73ffffffffffffffffffffffffffffffffffffffff16600060029054906101000a900473ffffffffffffffffffffffffffffffffffffffff1673ffffffffffffffffffffffffffffffffffffffff1614610f87576040517f08c379a0000000000000000000000000000000000000000000000000000000008152600401610f7e90611d7c565b60405180910390fd5b600073ffffffffffffffffffffffffffffffffffffffff168173ffffffffffffffffffffffffffffffffffffffff1603610ff6576040517f08c379a0000000000000000000000000000000000000000000000000000000008152600401610fed906120f4565b60405180910390fd5b80600160006101000a81548173ffffffffffffffffffffffffffffffffffffffff021916908373ffffffffffffffffffffffffffffffffffffffff16021790555050565b611042611444565b73ffffffffffffffffffffffffffffffffffffffff16600060029054906101000a900473ffffffffffffffffffffffffffffffffffffffff1673ffffffffffffffffffffffffffffffffffffffff16146110d1576040517f08c379a00000000000000000000000000000000000000000000000000000000081526004016110c890611d7c565b60405180910390fd5b603360009054906101000a900460ff1615603360006101000a81548160ff0219169083151502179055507f8ba9af8fef251a59a57bb383a518ff12b3c2770c23cf0ab9a59a9e2390e08f43603360009054906101000a900460ff166040516111399190611883565b60405180910390a1565b61114b611444565b73ffffffffffffffffffffffffffffffffffffffff16600160009054906101000a900473ffffffffffffffffffffffffffffffffffffffff1673ffffffffffffffffffffffffffffffffffffffff16146111da576040517f08c379a00000000000000000000000000000000000000000000000000000000081526004016111d190612160565b60405180910390fd5b600160009054906101000a900473ffffffffffffffffffffffffffffffffffffffff1673ffffffffffffffffffffffffffffffffffffffff16600060029054906101000a900473ffffffffffffffffffffffffffffffffffffffff1673ffffffffffffffffffffffffffffffffffffffff167fd4459d5b8b913cab0244230fd9b1c08b6ceace7fe9230e60d0f74cbffdf849d060405160405180910390a3600160009054906101000a900473ffffffffffffffffffffffffffffffffffffffff16600060026101000a81548173ffffffffffffffffffffffffffffffffffffffff021916908373ffffffffffffffffffffffffffffffffffffffff1602179055506000600160006101000a81548173ffffffffffffffffffffffffffffffffffffffff021916908373ffffffffffffffffffffffffffffffffffffffff160217905550565b611327611444565b73ffffffffffffffffffffffffffffffffffffffff16600060029054906101000a900473ffffffffffffffffffffffffffffffffffffffff1673ffffffffffffffffffffffffffffffffffffffff16146113b6576040517f08c379a00000000000000000000000000000000000000000000000000000000081526004016113ad90611d7c565b60405180910390fd5b7f000000000000000000000000000000000000000000000000000000000000000073ffffffffffffffffffffffffffffffffffffffff16631b86f18c826040518263ffffffff1660e01b815260040161140f91906118ad565b600060405180830381600087803b15801561142957600080fd5b505af115801561143d573d6000803e3d6000fd5b5050505050565b600033905090565b6114cd8363a9059cbb60e01b848460405160240161146b929190611fe6565b604051602081830303815290604052907bffffffffffffffffffffffffffffffffffffffffffffffffffffffff19166020820180517bffffffffffffffffffffffffffffffffffffffffffffffffffffffff83818316178352505050506114d2565b505050565b6000611534826040518060400160405280602081526020017f5361666545524332303a206c6f772d6c6576656c2063616c6c206661696c65648152508573ffffffffffffffffffffffffffffffffffffffff166115999092919063ffffffff16565b9050600081511115611594578080602001905181019061155491906121ac565b611593576040517f08c379a000000000000000000000000000000000000000000000000000000000815260040161158a9061224b565b60405180910390fd5b5b505050565b60606115a884846000856115b1565b90509392505050565b6060824710156115f6576040517f08c379a00000000000000000000000000000000000000000000000000000000081526004016115ed906122dd565b60405180910390fd5b6115ff856116c5565b61163e576040517f08c379a000000000000000000000000000000000000000000000000000000000815260040161163590612349565b60405180910390fd5b6000808673ffffffffffffffffffffffffffffffffffffffff16858760405161166791906123b0565b60006040518083038185875af1925050503d80600081146116a4576040519150601f19603f3d011682016040523d82523d6000602084013e6116a9565b606091505b50915091506116b98282866116e8565b92505050949350505050565b6000808273ffffffffffffffffffffffffffffffffffffffff163b119050919050565b606083156116f857829050611748565b60008351111561170b5782518084602001fd5b816040517f08c379a000000000000000000000000000000000000000000000000000000000815260040161173f9190612086565b60405180910390fd5b9392505050565b6000604051905090565b600080fd5b600080fd5b600073ffffffffffffffffffffffffffffffffffffffff82169050919050565b600061178e82611763565b9050919050565b61179e81611783565b81146117a957600080fd5b50565b6000813590506117bb81611795565b92915050565b6000602082840312156117d7576117d6611759565b5b60006117e5848285016117ac565b91505092915050565b6000819050919050565b600061181361180e61180984611763565b6117ee565b611763565b9050919050565b6000611825826117f8565b9050919050565b60006118378261181a565b9050919050565b6118478161182c565b82525050565b6000602082019050611862600083018461183e565b92915050565b60008115159050919050565b61187d81611868565b82525050565b60006020820190506118986000830184611874565b92915050565b6118a781611783565b82525050565b60006020820190506118c2600083018461189e565b92915050565b6000819050919050565b6118db816118c8565b81146118e657600080fd5b50565b6000813590506118f8816118d2565b92915050565b600080fd5b600080fd5b600080fd5b60008083601f840112611923576119226118fe565b5b8235905067ffffffffffffffff8111156119405761193f611903565b5b60208301915083600182028301111561195c5761195b611908565b5b9250929050565b60008060008060006080868803121561197f5761197e611759565b5b600061198d888289016117ac565b955050602061199e888289016117ac565b94505060406119af888289016118e9565b935050606086013567ffffffffffffffff8111156119d0576119cf61175e565b5b6119dc8882890161190d565b92509250509295509295909350565b60007fffffffff0000000000000000000000000000000000000000000000000000000082169050919050565b611a20816119eb565b82525050565b6000602082019050611a3b6000830184611a17565b92915050565b600060208284031215611a5757611a56611759565b5b6000611a65848285016118e9565b91505092915050565b6000611a798261181a565b9050919050565b611a8981611a6e565b82525050565b6000602082019050611aa46000830184611a80565b92915050565b600061ffff82169050919050565b611ac181611aaa565b82525050565b6000602082019050611adc6000830184611ab8565b92915050565b600060ff82169050919050565b611af881611ae2565b82525050565b6000602082019050611b136000830184611aef565b92915050565b60008060408385031215611b3057611b2f611759565b5b6000611b3e858286016117ac565b9250506020611b4f858286016118e9565b9150509250929050565b600080fd5b6000601f19601f8301169050919050565b7f4e487b7100000000000000000000000000000000000000000000000000000000600052604160045260246000fd5b611ba782611b5e565b810181811067ffffffffffffffff82111715611bc657611bc5611b6f565b5b80604052505050565b6000611bd961174f565b9050611be58282611b9e565b919050565b600067ffffffffffffffff821115611c0557611c04611b6f565b5b611c0e82611b5e565b9050602081019050919050565b82818337600083830152505050565b6000611c3d611c3884611bea565b611bcf565b905082815260208101848484011115611c5957611c58611b59565b5b611c64848285611c1b565b509392505050565b600082601f830112611c8157611c806118fe565b5b8135611c91848260208601611c2a565b91505092915050565b600060208284031215611cb057611caf611759565b5b600082013567ffffffffffffffff811115611cce57611ccd61175e565b5b611cda84828501611c6c565b91505092915050565b6000611cee8261181a565b9050919050565b611cfe81611ce3565b82525050565b6000602082019050611d196000830184611cf5565b92915050565b600082825260208201905092915050565b7f6e6f7420676f7665726e6f720000000000000000000000000000000000000000600082015250565b6000611d66600c83611d1f565b9150611d7182611d30565b602082019050919050565b60006020820190508181036000830152611d9581611d59565b9050919050565b600081519050611dab816118d2565b92915050565b600060208284031215611dc757611dc6611759565b5b6000611dd584828501611d9c565b91505092915050565b7f6d696e742d69732d6e6f742d656e61626c656400000000000000000000000000600082015250565b6000611e14601383611d1f565b9150611e1f82611dde565b602082019050919050565b60006020820190508181036000830152611e4381611e07565b9050919050565b7f616c72656164792d6d696e7465642d64736b0000000000000000000000000000600082015250565b6000611e80601283611d1f565b9150611e8b82611e4a565b602082019050919050565b60006020820190508181036000830152611eaf81611e73565b9050919050565b7f6d61782d737570706c792d726561636865640000000000000000000000000000600082015250565b6000611eec601283611d1f565b9150611ef782611eb6565b602082019050919050565b60006020820190508181036000830152611f1b81611edf565b9050919050565b611f2b816118c8565b82525050565b50565b6000611f41600083611d1f565b9150611f4c82611f31565b600082019050919050565b600060a082019050611f6c600083018761189e565b611f79602083018661189e565b611f866040830185611f22565b8181036060830152611f9781611f34565b9050611fa6608083018461189e565b95945050505050565b6000606082019050611fc4600083018661189e565b611fd1602083018561189e565b611fde6040830184611f22565b949350505050565b6000604082019050611ffb600083018561189e565b6120086020830184611f22565b9392505050565b600081519050919050565b60005b8381101561203857808201518184015260208101905061201d565b83811115612047576000848401525b50505050565b60006120588261200f565b6120628185611d1f565b935061207281856020860161201a565b61207b81611b5e565b840191505092915050565b600060208201905081810360008301526120a0818461204d565b905092915050565b7f696e76616c69642070726f706f73656420676f7665726e6f7200000000000000600082015250565b60006120de601983611d1f565b91506120e9826120a8565b602082019050919050565b6000602082019050818103600083015261210d816120d1565b9050919050565b7f6e6f74207468652070726f706f73656420676f7665726e6f7200000000000000600082015250565b600061214a601983611d1f565b915061215582612114565b602082019050919050565b600060208201905081810360008301526121798161213d565b9050919050565b61218981611868565b811461219457600080fd5b50565b6000815190506121a681612180565b92915050565b6000602082840312156121c2576121c1611759565b5b60006121d084828501612197565b91505092915050565b7f5361666545524332303a204552433230206f7065726174696f6e20646964206e60008201527f6f74207375636365656400000000000000000000000000000000000000000000602082015250565b6000612235602a83611d1f565b9150612240826121d9565b604082019050919050565b6000602082019050818103600083015261226481612228565b9050919050565b7f416464726573733a20696e73756666696369656e742062616c616e636520666f60008201527f722063616c6c0000000000000000000000000000000000000000000000000000602082015250565b60006122c7602683611d1f565b91506122d28261226b565b604082019050919050565b600060208201905081810360008301526122f6816122ba565b9050919050565b7f416464726573733a2063616c6c20746f206e6f6e2d636f6e7472616374000000600082015250565b6000612333601d83611d1f565b915061233e826122fd565b602082019050919050565b6000602082019050818103600083015261236281612326565b9050919050565b600081519050919050565b600081905092915050565b600061238a82612369565b6123948185612374565b93506123a481856020860161201a565b80840191505092915050565b60006123bc828461237f565b91508190509291505056fea2646970667358221220a90575cb176a19c75bf4d7142e0e72bf4892d8e346d3d07b8a28aa1dc503fa4464736f6c634300080f0033",
  "devdoc": {
    "kind": "dev",
    "methods": {
      "acceptGovernorship()": {
        "details": "Allows new governor to accept governorship of the contract."
      },
      "burn(uint256)": {
        "params": {
          "id_": "DSK id to burn"
        }
      },
      "onERC721Received(address,address,uint256,bytes)": {
        "details": "This function enables this contract to receive ERC721 tokens"
      },
      "transferCollectionOwnership(address)": {
        "params": {
          "newOwner_": "Address of new owner"
        }
      },
      "transferGovernorship(address)": {
        "details": "Transfers governorship of the contract to a new account (`proposedGovernor`). Can only be called by the current governor."
      },
      "updateBaseURI(string)": {
        "params": {
          "baseURI_": "New baseURI string"
        }
      },
      "updateMetamaster(address)": {
        "params": {
          "metamaster_": "Address of new metamaster"
        }
      },
      "updateRoyaltyConfig(address,uint256)": {
        "params": {
          "royaltyRate_": "Royalty rate in Basis Points. ie. 100 = 1%, 10_000 = 100%",
          "royaltyReceiver_": "Address of royalty receiver"
        }
      }
    },
    "title": "Dollar Store Kids",
    "version": 1
  },
  "userdoc": {
    "kind": "user",
    "methods": {
      "MAX_DSK()": {
        "notice": "Max amount of Dollar Store Kids to release"
      },
      "MINT_PER_ADDRESS()": {
        "notice": "Allowed Dollar Store Kids mints per address"
      },
      "USDC()": {
        "notice": "Input token for the Dollar Store Kids"
      },
      "alreadyMinted(address)": {
        "notice": "Mapping of addresses who have minted."
      },
      "burn(uint256)": {
        "notice": "Burn a DSK and get 1 USDC back"
      },
      "capsuleCollection()": {
        "notice": "Dollar Store Kids collection"
      },
      "isMintEnabled()": {
        "notice": "Flag indicating whether the Dollar Store Kids mint is enabled."
      },
      "mint()": {
        "notice": "Mint a DSK to caller address"
      },
      "sweep(address)": {
        "notice": "onlyGovernor:: Sweep given token to governor address"
      },
      "toggleMint()": {
        "notice": "onlyGovernor:: Toggle minting status of the Dollar Store Kids"
      },
      "transferCollectionOwnership(address)": {
        "notice": "onlyGovernor:: Transfer ownership of the Dollar Store Kids Capsule collection"
      },
      "updateBaseURI(string)": {
        "notice": "onlyGovernor:: Set the collection baseURI"
      },
      "updateMetamaster(address)": {
        "notice": "onlyGovernor:: Transfer metamaster of the Dollar Store Kids Capsule collection"
      },
      "updateRoyaltyConfig(address,uint256)": {
        "notice": "onlyGovernor:: Update royalty receiver and rate in Dollar Store Kids collection"
      }
    },
    "version": 1
  },
  "storageLayout": {
    "storage": [
      {
        "astId": 25,
        "contract": "contracts/DollarStoreKids.sol:DollarStoreKids",
        "label": "_initialized",
        "offset": 0,
        "slot": "0",
        "type": "t_uint8"
      },
      {
        "astId": 28,
        "contract": "contracts/DollarStoreKids.sol:DollarStoreKids",
        "label": "_initializing",
        "offset": 1,
        "slot": "0",
        "type": "t_bool"
      },
      {
        "astId": 1625,
        "contract": "contracts/DollarStoreKids.sol:DollarStoreKids",
        "label": "governor",
        "offset": 2,
        "slot": "0",
        "type": "t_address"
      },
      {
        "astId": 1627,
        "contract": "contracts/DollarStoreKids.sol:DollarStoreKids",
        "label": "proposedGovernor",
        "offset": 0,
        "slot": "1",
        "type": "t_address"
      },
      {
        "astId": 1749,
        "contract": "contracts/DollarStoreKids.sol:DollarStoreKids",
        "label": "__gap",
        "offset": 0,
        "slot": "2",
        "type": "t_array(t_uint256)49_storage"
      },
      {
        "astId": 1303,
        "contract": "contracts/DollarStoreKids.sol:DollarStoreKids",
        "label": "isMintEnabled",
        "offset": 0,
        "slot": "51",
        "type": "t_bool"
      },
      {
        "astId": 1308,
        "contract": "contracts/DollarStoreKids.sol:DollarStoreKids",
        "label": "alreadyMinted",
        "offset": 0,
        "slot": "52",
        "type": "t_mapping(t_address,t_bool)"
      }
    ],
    "types": {
      "t_address": {
        "encoding": "inplace",
        "label": "address",
        "numberOfBytes": "20"
      },
      "t_array(t_uint256)49_storage": {
        "base": "t_uint256",
        "encoding": "inplace",
        "label": "uint256[49]",
        "numberOfBytes": "1568"
      },
      "t_bool": {
        "encoding": "inplace",
        "label": "bool",
        "numberOfBytes": "1"
      },
      "t_mapping(t_address,t_bool)": {
        "encoding": "mapping",
        "key": "t_address",
        "label": "mapping(address => bool)",
        "numberOfBytes": "32",
        "value": "t_bool"
      },
      "t_uint256": {
        "encoding": "inplace",
        "label": "uint256",
        "numberOfBytes": "32"
      },
      "t_uint8": {
        "encoding": "inplace",
        "label": "uint8",
        "numberOfBytes": "1"
      }
    }
  }
}