{
  "address": "0x22d8f86350E983de8758eaF66A19558b73F11A00",
  "abi": [
    {
      "inputs": [
        {
          "internalType": "address",
          "name": "dskCollection_",
          "type": "address"
        }
      ],
      "stateMutability": "nonpayable",
      "type": "constructor"
    },
    {
      "anonymous": false,
      "inputs": [
        {
          "indexed": true,
          "internalType": "address",
          "name": "user",
          "type": "address"
        },
        {
          "indexed": true,
          "internalType": "uint256",
          "name": "id",
          "type": "uint256"
        }
      ],
      "name": "DollarStoreKidsBurnt",
      "type": "event"
    },
    {
      "anonymous": false,
      "inputs": [
        {
          "indexed": true,
          "internalType": "address",
          "name": "user",
          "type": "address"
        },
        {
          "indexed": true,
          "internalType": "uint256",
          "name": "id",
          "type": "uint256"
        }
      ],
      "name": "DollarStoreKidsMinted",
      "type": "event"
    },
    {
      "anonymous": false,
      "inputs": [
        {
          "indexed": false,
          "internalType": "uint8",
          "name": "version",
          "type": "uint8"
        }
      ],
      "name": "Initialized",
      "type": "event"
    },
    {
      "anonymous": false,
      "inputs": [
        {
          "indexed": false,
          "internalType": "bool",
          "name": "mintStatus",
          "type": "bool"
        }
      ],
      "name": "MintToggled",
      "type": "event"
    },
    {
      "anonymous": false,
      "inputs": [
        {
          "indexed": true,
          "internalType": "address",
          "name": "previousGovernor",
          "type": "address"
        },
        {
          "indexed": true,
          "internalType": "address",
          "name": "proposedGovernor",
          "type": "address"
        }
      ],
      "name": "UpdatedGovernor",
      "type": "event"
    },
    {
      "inputs": [],
      "name": "CAPSULE_MINTER",
      "outputs": [
        {
          "internalType": "contract ICapsuleMinter",
          "name": "",
          "type": "address"
        }
      ],
      "stateMutability": "view",
      "type": "function"
    },
    {
      "inputs": [],
      "name": "MAX_DSK",
      "outputs": [
        {
          "internalType": "uint16",
          "name": "",
          "type": "uint16"
        }
      ],
      "stateMutability": "view",
      "type": "function"
    },
    {
      "inputs": [],
      "name": "MINT_PER_ADDRESS",
      "outputs": [
        {
          "internalType": "uint8",
          "name": "",
          "type": "uint8"
        }
      ],
      "stateMutability": "view",
      "type": "function"
    },
    {
      "inputs": [],
      "name": "USDC",
      "outputs": [
        {
          "internalType": "address",
          "name": "",
          "type": "address"
        }
      ],
      "stateMutability": "view",
      "type": "function"
    },
    {
      "inputs": [],
      "name": "VERSION",
      "outputs": [
        {
          "internalType": "string",
          "name": "",
          "type": "string"
        }
      ],
      "stateMutability": "view",
      "type": "function"
    },
    {
      "inputs": [],
      "name": "acceptGovernorship",
      "outputs": [],
      "stateMutability": "nonpayable",
      "type": "function"
    },
    {
      "inputs": [
        {
          "internalType": "address",
          "name": "",
          "type": "address"
        }
      ],
      "name": "alreadyMinted",
      "outputs": [
        {
          "internalType": "bool",
          "name": "",
          "type": "bool"
        }
      ],
      "stateMutability": "view",
      "type": "function"
    },
    {
      "inputs": [
        {
          "internalType": "uint256",
          "name": "id_",
          "type": "uint256"
        }
      ],
      "name": "burn",
      "outputs": [],
      "stateMutability": "nonpayable",
      "type": "function"
    },
    {
      "inputs": [],
      "name": "capsuleCollection",
      "outputs": [
        {
          "internalType": "contract ICapsule",
          "name": "",
          "type": "address"
        }
      ],
      "stateMutability": "view",
      "type": "function"
    },
    {
      "inputs": [],
      "name": "claimCollectionBurnerRole",
      "outputs": [],
      "stateMutability": "nonpayable",
      "type": "function"
    },
    {
      "inputs": [],
      "name": "governor",
      "outputs": [
        {
          "internalType": "address",
          "name": "",
          "type": "address"
        }
      ],
      "stateMutability": "view",
      "type": "function"
    },
    {
      "inputs": [],
      "name": "isMintEnabled",
      "outputs": [
        {
          "internalType": "bool",
          "name": "",
          "type": "bool"
        }
      ],
      "stateMutability": "view",
      "type": "function"
    },
    {
      "inputs": [],
      "name": "mint",
      "outputs": [],
      "stateMutability": "payable",
      "type": "function"
    },
    {
      "inputs": [
        {
          "internalType": "address",
          "name": "",
          "type": "address"
        },
        {
          "internalType": "address",
          "name": "",
          "type": "address"
        },
        {
          "internalType": "uint256",
          "name": "",
          "type": "uint256"
        },
        {
          "internalType": "bytes",
          "name": "",
          "type": "bytes"
        }
      ],
      "name": "onERC721Received",
      "outputs": [
        {
          "internalType": "bytes4",
          "name": "",
          "type": "bytes4"
        }
      ],
      "stateMutability": "pure",
      "type": "function"
    },
    {
      "inputs": [
        {
          "internalType": "address",
          "name": "_token",
          "type": "address"
        }
      ],
      "name": "sweep",
      "outputs": [],
      "stateMutability": "nonpayable",
      "type": "function"
    },
    {
      "inputs": [],
      "name": "toggleMint",
      "outputs": [],
      "stateMutability": "nonpayable",
      "type": "function"
    },
    {
      "inputs": [
        {
          "internalType": "address",
          "name": "newOwner_",
          "type": "address"
        }
      ],
      "name": "transferCollectionOwnership",
      "outputs": [],
      "stateMutability": "nonpayable",
      "type": "function"
    },
    {
      "inputs": [
        {
          "internalType": "address",
          "name": "_proposedGovernor",
          "type": "address"
        }
      ],
      "name": "transferGovernorship",
      "outputs": [],
      "stateMutability": "nonpayable",
      "type": "function"
    },
    {
      "inputs": [
        {
          "internalType": "string",
          "name": "baseURI_",
          "type": "string"
        }
      ],
      "name": "updateBaseURI",
      "outputs": [],
      "stateMutability": "nonpayable",
      "type": "function"
    },
    {
      "inputs": [
        {
          "internalType": "address",
          "name": "metamaster_",
          "type": "address"
        }
      ],
      "name": "updateMetamaster",
      "outputs": [],
      "stateMutability": "nonpayable",
      "type": "function"
    },
    {
      "inputs": [
        {
          "internalType": "address",
          "name": "royaltyReceiver_",
          "type": "address"
        },
        {
          "internalType": "uint256",
          "name": "royaltyRate_",
          "type": "uint256"
        }
      ],
      "name": "updateRoyaltyConfig",
      "outputs": [],
      "stateMutability": "nonpayable",
      "type": "function"
    }
  ],
  "transactionHash": "0xb9ee923a09bb2e722ac1bcce682f945e8a9dcebef89ca27cbf1916a6c4047f3e",
  "args": [
    "0xC67F5E3a5B697AE004Edd8F84925189a81c6DC4b"
  ],
  "numDeployments": 1,
  "solcInputHash": "0d49da76a26344d8fa8e016b679bfabe",
  "bytecode": "0x60a06040523480156200001157600080fd5b506040516200293b3803806200293b833981810160405281019062000037919062000207565b6000620000496200019560201b60201c565b905080600060026101000a81548173ffffffffffffffffffffffffffffffffffffffff021916908373ffffffffffffffffffffffffffffffffffffffff1602179055508073ffffffffffffffffffffffffffffffffffffffff16600073ffffffffffffffffffffffffffffffffffffffff167fd4459d5b8b913cab0244230fd9b1c08b6ceace7fe9230e60d0f74cbffdf849d060405160405180910390a350600073ffffffffffffffffffffffffffffffffffffffff168173ffffffffffffffffffffffffffffffffffffffff16036200015a576040517f08c379a000000000000000000000000000000000000000000000000000000000815260040162000151906200029a565b60405180910390fd5b8073ffffffffffffffffffffffffffffffffffffffff1660808173ffffffffffffffffffffffffffffffffffffffff168152505050620002bc565b600033905090565b600080fd5b600073ffffffffffffffffffffffffffffffffffffffff82169050919050565b6000620001cf82620001a2565b9050919050565b620001e181620001c2565b8114620001ed57600080fd5b50565b6000815190506200020181620001d6565b92915050565b60006020828403121562000220576200021f6200019d565b5b60006200023084828501620001f0565b91505092915050565b600082825260208201905092915050565b7f64736b2d636f6c6c656374696f6e2d69732d6e756c6c00000000000000000000600082015250565b60006200028260168362000239565b91506200028f826200024a565b602082019050919050565b60006020820190508181036000830152620002b58162000273565b9050919050565b60805161262b620003106000396000818161066e0152818161082c01528181610a3801528181610b7001528181610d6201528181610dd501528181610eb301528181610fdb0152611547015261262b6000f3fe60806040526004361061012a5760003560e01c806372abd21d116100ab578063b2ba4f9c1161006f578063b2ba4f9c14610399578063b6aa515b146103c4578063d3dd5fe0146103ed578063f3b27bc314610404578063fce126441461041b578063ffa1ad74146104445761012a565b806372abd21d146102c6578063784e987f146102f157806389a302711461031c5780638d5cdc2614610347578063931688cb146103705761012a565b8063150b7a02116100f2578063150b7a02146101f3578063346de50a1461023057806342966c681461025b578063447a9f8314610284578063580320841461029b5761012a565b806301681a621461012f57806304dad935146101585780630a398b88146101815780630c340a24146101be5780631249c58b146101e9575b600080fd5b34801561013b57600080fd5b5061015660048036038101906101519190611989565b61046f565b005b34801561016457600080fd5b5061017f600480360381019061017a9190611989565b6105d5565b005b34801561018d57600080fd5b506101a860048036038101906101a39190611989565b6106fa565b6040516101b591906119d1565b60405180910390f35b3480156101ca57600080fd5b506101d361071a565b6040516101e091906119fb565b60405180910390f35b6101f1610740565b005b3480156101ff57600080fd5b5061021a60048036038101906102159190611ab1565b610b0a565b6040516102279190611b74565b60405180910390f35b34801561023c57600080fd5b50610245610b1f565b60405161025291906119d1565b60405180910390f35b34801561026757600080fd5b50610282600480360381019061027d9190611b8f565b610b32565b005b34801561029057600080fd5b50610299610c2b565b005b3480156102a757600080fd5b506102b0610dd3565b6040516102bd9190611c1b565b60405180910390f35b3480156102d257600080fd5b506102db610df7565b6040516102e89190611c53565b60405180910390f35b3480156102fd57600080fd5b50610306610dfd565b6040516103139190611c8a565b60405180910390f35b34801561032857600080fd5b50610331610e02565b60405161033e91906119fb565b60405180910390f35b34801561035357600080fd5b5061036e60048036038101906103699190611ca5565b610e1a565b005b34801561037c57600080fd5b5061039760048036038101906103929190611e26565b610f42565b005b3480156103a557600080fd5b506103ae611067565b6040516103bb9190611e90565b60405180910390f35b3480156103d057600080fd5b506103eb60048036038101906103e69190611989565b61107f565b005b3480156103f957600080fd5b506104026111c9565b005b34801561041057600080fd5b506104196112d2565b005b34801561042757600080fd5b50610442600480360381019061043d9190611989565b6114ae565b005b34801561045057600080fd5b506104596115d3565b6040516104669190611f33565b60405180910390f35b61047761160c565b73ffffffffffffffffffffffffffffffffffffffff16600060029054906101000a900473ffffffffffffffffffffffffffffffffffffffff1673ffffffffffffffffffffffffffffffffffffffff1614610506576040517f08c379a00000000000000000000000000000000000000000000000000000000081526004016104fd90611fa1565b60405180910390fd5b60008173ffffffffffffffffffffffffffffffffffffffff166370a08231306040518263ffffffff1660e01b815260040161054191906119fb565b602060405180830381865afa15801561055e573d6000803e3d6000fd5b505050506040513d601f19601f820116820180604052508101906105829190611fd6565b90506105d1600060029054906101000a900473ffffffffffffffffffffffffffffffffffffffff16828473ffffffffffffffffffffffffffffffffffffffff166116149092919063ffffffff16565b5050565b6105dd61160c565b73ffffffffffffffffffffffffffffffffffffffff16600060029054906101000a900473ffffffffffffffffffffffffffffffffffffffff1673ffffffffffffffffffffffffffffffffffffffff161461066c576040517f08c379a000000000000000000000000000000000000000000000000000000000815260040161066390611fa1565b60405180910390fd5b7f000000000000000000000000000000000000000000000000000000000000000073ffffffffffffffffffffffffffffffffffffffff1663f2fde38b826040518263ffffffff1660e01b81526004016106c591906119fb565b600060405180830381600087803b1580156106df57600080fd5b505af11580156106f3573d6000803e3d6000fd5b5050505050565b60346020528060005260406000206000915054906101000a900460ff1681565b600060029054906101000a900473ffffffffffffffffffffffffffffffffffffffff1681565b603360009054906101000a900460ff1661078f576040517f08c379a00000000000000000000000000000000000000000000000000000000081526004016107869061204f565b60405180910390fd5b600061079961160c565b9050603460008273ffffffffffffffffffffffffffffffffffffffff1673ffffffffffffffffffffffffffffffffffffffff16815260200190815260200160002060009054906101000a900460ff1615610828576040517f08c379a000000000000000000000000000000000000000000000000000000000815260040161081f906120bb565b60405180910390fd5b60007f000000000000000000000000000000000000000000000000000000000000000073ffffffffffffffffffffffffffffffffffffffff166361bc221a6040518163ffffffff1660e01b8152600401602060405180830381865afa158015610895573d6000803e3d6000fd5b505050506040513d601f19601f820116820180604052508101906108b99190611fd6565b9050610d0561ffff168110610903576040517f08c379a00000000000000000000000000000000000000000000000000000000081526004016108fa90612127565b60405180910390fd5b6001603460008473ffffffffffffffffffffffffffffffffffffffff1673ffffffffffffffffffffffffffffffffffffffff16815260200190815260200160002060006101000a81548160ff02191690831515021790555073a0b86991c6218b36c1d19d4a2e9eb0ce3606eb4873ffffffffffffffffffffffffffffffffffffffff1663a9059cbb73b8cf4a28da322598fdb78a1406a61b72d6f6b396620f42406040518363ffffffff1660e01b81526004016109c1929190612156565b6020604051808303816000875af11580156109e0573d6000803e3d6000fd5b505050506040513d601f19601f82011682018060405250810190610a0491906121ab565b5073b8cf4a28da322598fdb78a1406a61b72d6f6b39673ffffffffffffffffffffffffffffffffffffffff166382cd81bc347f000000000000000000000000000000000000000000000000000000000000000073a0b86991c6218b36c1d19d4a2e9eb0ce3606eb48620f4240876040518663ffffffff1660e01b8152600401610a9094939291906121fe565b6000604051808303818588803b158015610aa957600080fd5b505af1158015610abd573d6000803e3d6000fd5b5050505050808273ffffffffffffffffffffffffffffffffffffffff167f300d6a868354287e59fa2bf83ed2a511eb48b1d4c37ade589fbb5de6ecd679cd60405160405180910390a35050565b600063150b7a0260e01b905095945050505050565b603360009054906101000a900460ff1681565b6000610b3c61160c565b905073b8cf4a28da322598fdb78a1406a61b72d6f6b39673ffffffffffffffffffffffffffffffffffffffff1663f79c00427f00000000000000000000000000000000000000000000000000000000000000008484856040518563ffffffff1660e01b8152600401610bb19493929190612256565b600060405180830381600087803b158015610bcb57600080fd5b505af1158015610bdf573d6000803e3d6000fd5b50505050818173ffffffffffffffffffffffffffffffffffffffff167f7cb99e32cc436a43fe66a663f0b2ed66d30d5edd1cf27495e0e3a579b9b2402960405160405180910390a35050565b610c3361160c565b73ffffffffffffffffffffffffffffffffffffffff16600060029054906101000a900473ffffffffffffffffffffffffffffffffffffffff1673ffffffffffffffffffffffffffffffffffffffff1614610cc2576040517f08c379a0000000000000000000000000000000000000000000000000000000008152600401610cb990611fa1565b60405180910390fd5b73b8cf4a28da322598fdb78a1406a61b72d6f6b39673ffffffffffffffffffffffffffffffffffffffff1663c45a01556040518163ffffffff1660e01b8152600401602060405180830381865afa158015610d21573d6000803e3d6000fd5b505050506040513d601f19601f82011682018060405250810190610d4591906122d9565b73ffffffffffffffffffffffffffffffffffffffff166377394a0b7f0000000000000000000000000000000000000000000000000000000000000000306040518363ffffffff1660e01b8152600401610d9f929190612306565b600060405180830381600087803b158015610db957600080fd5b505af1158015610dcd573d6000803e3d6000fd5b50505050565b7f000000000000000000000000000000000000000000000000000000000000000081565b610d0581565b600181565b73a0b86991c6218b36c1d19d4a2e9eb0ce3606eb4881565b610e2261160c565b73ffffffffffffffffffffffffffffffffffffffff16600060029054906101000a900473ffffffffffffffffffffffffffffffffffffffff1673ffffffffffffffffffffffffffffffffffffffff1614610eb1576040517f08c379a0000000000000000000000000000000000000000000000000000000008152600401610ea890611fa1565b60405180910390fd5b7f000000000000000000000000000000000000000000000000000000000000000073ffffffffffffffffffffffffffffffffffffffff16638d5cdc2683836040518363ffffffff1660e01b8152600401610f0c929190612156565b600060405180830381600087803b158015610f2657600080fd5b505af1158015610f3a573d6000803e3d6000fd5b505050505050565b610f4a61160c565b73ffffffffffffffffffffffffffffffffffffffff16600060029054906101000a900473ffffffffffffffffffffffffffffffffffffffff1673ffffffffffffffffffffffffffffffffffffffff1614610fd9576040517f08c379a0000000000000000000000000000000000000000000000000000000008152600401610fd090611fa1565b60405180910390fd5b7f000000000000000000000000000000000000000000000000000000000000000073ffffffffffffffffffffffffffffffffffffffff166355f804b3826040518263ffffffff1660e01b81526004016110329190611f33565b600060405180830381600087803b15801561104c57600080fd5b505af1158015611060573d6000803e3d6000fd5b5050505050565b73b8cf4a28da322598fdb78a1406a61b72d6f6b39681565b61108761160c565b73ffffffffffffffffffffffffffffffffffffffff16600060029054906101000a900473ffffffffffffffffffffffffffffffffffffffff1673ffffffffffffffffffffffffffffffffffffffff1614611116576040517f08c379a000000000000000000000000000000000000000000000000000000000815260040161110d90611fa1565b60405180910390fd5b600073ffffffffffffffffffffffffffffffffffffffff168173ffffffffffffffffffffffffffffffffffffffff1603611185576040517f08c379a000000000000000000000000000000000000000000000000000000000815260040161117c9061237b565b60405180910390fd5b80600160006101000a81548173ffffffffffffffffffffffffffffffffffffffff021916908373ffffffffffffffffffffffffffffffffffffffff16021790555050565b6111d161160c565b73ffffffffffffffffffffffffffffffffffffffff16600060029054906101000a900473ffffffffffffffffffffffffffffffffffffffff1673ffffffffffffffffffffffffffffffffffffffff1614611260576040517f08c379a000000000000000000000000000000000000000000000000000000000815260040161125790611fa1565b60405180910390fd5b603360009054906101000a900460ff1615603360006101000a81548160ff0219169083151502179055507f8ba9af8fef251a59a57bb383a518ff12b3c2770c23cf0ab9a59a9e2390e08f43603360009054906101000a900460ff166040516112c891906119d1565b60405180910390a1565b6112da61160c565b73ffffffffffffffffffffffffffffffffffffffff16600160009054906101000a900473ffffffffffffffffffffffffffffffffffffffff1673ffffffffffffffffffffffffffffffffffffffff1614611369576040517f08c379a0000000000000000000000000000000000000000000000000000000008152600401611360906123e7565b60405180910390fd5b600160009054906101000a900473ffffffffffffffffffffffffffffffffffffffff1673ffffffffffffffffffffffffffffffffffffffff16600060029054906101000a900473ffffffffffffffffffffffffffffffffffffffff1673ffffffffffffffffffffffffffffffffffffffff167fd4459d5b8b913cab0244230fd9b1c08b6ceace7fe9230e60d0f74cbffdf849d060405160405180910390a3600160009054906101000a900473ffffffffffffffffffffffffffffffffffffffff16600060026101000a81548173ffffffffffffffffffffffffffffffffffffffff021916908373ffffffffffffffffffffffffffffffffffffffff1602179055506000600160006101000a81548173ffffffffffffffffffffffffffffffffffffffff021916908373ffffffffffffffffffffffffffffffffffffffff160217905550565b6114b661160c565b73ffffffffffffffffffffffffffffffffffffffff16600060029054906101000a900473ffffffffffffffffffffffffffffffffffffffff1673ffffffffffffffffffffffffffffffffffffffff1614611545576040517f08c379a000000000000000000000000000000000000000000000000000000000815260040161153c90611fa1565b60405180910390fd5b7f000000000000000000000000000000000000000000000000000000000000000073ffffffffffffffffffffffffffffffffffffffff16631b86f18c826040518263ffffffff1660e01b815260040161159e91906119fb565b600060405180830381600087803b1580156115b857600080fd5b505af11580156115cc573d6000803e3d6000fd5b5050505050565b6040518060400160405280600581526020017f322e302e3000000000000000000000000000000000000000000000000000000081525081565b600033905090565b6116958363a9059cbb60e01b8484604051602401611633929190612156565b604051602081830303815290604052907bffffffffffffffffffffffffffffffffffffffffffffffffffffffff19166020820180517bffffffffffffffffffffffffffffffffffffffffffffffffffffffff838183161783525050505061169a565b505050565b60006116fc826040518060400160405280602081526020017f5361666545524332303a206c6f772d6c6576656c2063616c6c206661696c65648152508573ffffffffffffffffffffffffffffffffffffffff166117619092919063ffffffff16565b905060008151111561175c578080602001905181019061171c91906121ab565b61175b576040517f08c379a000000000000000000000000000000000000000000000000000000000815260040161175290612479565b60405180910390fd5b5b505050565b60606117708484600085611779565b90509392505050565b6060824710156117be576040517f08c379a00000000000000000000000000000000000000000000000000000000081526004016117b59061250b565b60405180910390fd5b6117c78561188d565b611806576040517f08c379a00000000000000000000000000000000000000000000000000000000081526004016117fd90612577565b60405180910390fd5b6000808673ffffffffffffffffffffffffffffffffffffffff16858760405161182f91906125de565b60006040518083038185875af1925050503d806000811461186c576040519150601f19603f3d011682016040523d82523d6000602084013e611871565b606091505b50915091506118818282866118b0565b92505050949350505050565b6000808273ffffffffffffffffffffffffffffffffffffffff163b119050919050565b606083156118c057829050611910565b6000835111156118d35782518084602001fd5b816040517f08c379a00000000000000000000000000000000000000000000000000000000081526004016119079190611f33565b60405180910390fd5b9392505050565b6000604051905090565b600080fd5b600080fd5b600073ffffffffffffffffffffffffffffffffffffffff82169050919050565b60006119568261192b565b9050919050565b6119668161194b565b811461197157600080fd5b50565b6000813590506119838161195d565b92915050565b60006020828403121561199f5761199e611921565b5b60006119ad84828501611974565b91505092915050565b60008115159050919050565b6119cb816119b6565b82525050565b60006020820190506119e660008301846119c2565b92915050565b6119f58161194b565b82525050565b6000602082019050611a1060008301846119ec565b92915050565b6000819050919050565b611a2981611a16565b8114611a3457600080fd5b50565b600081359050611a4681611a20565b92915050565b600080fd5b600080fd5b600080fd5b60008083601f840112611a7157611a70611a4c565b5b8235905067ffffffffffffffff811115611a8e57611a8d611a51565b5b602083019150836001820283011115611aaa57611aa9611a56565b5b9250929050565b600080600080600060808688031215611acd57611acc611921565b5b6000611adb88828901611974565b9550506020611aec88828901611974565b9450506040611afd88828901611a37565b935050606086013567ffffffffffffffff811115611b1e57611b1d611926565b5b611b2a88828901611a5b565b92509250509295509295909350565b60007fffffffff0000000000000000000000000000000000000000000000000000000082169050919050565b611b6e81611b39565b82525050565b6000602082019050611b896000830184611b65565b92915050565b600060208284031215611ba557611ba4611921565b5b6000611bb384828501611a37565b91505092915050565b6000819050919050565b6000611be1611bdc611bd78461192b565b611bbc565b61192b565b9050919050565b6000611bf382611bc6565b9050919050565b6000611c0582611be8565b9050919050565b611c1581611bfa565b82525050565b6000602082019050611c306000830184611c0c565b92915050565b600061ffff82169050919050565b611c4d81611c36565b82525050565b6000602082019050611c686000830184611c44565b92915050565b600060ff82169050919050565b611c8481611c6e565b82525050565b6000602082019050611c9f6000830184611c7b565b92915050565b60008060408385031215611cbc57611cbb611921565b5b6000611cca85828601611974565b9250506020611cdb85828601611a37565b9150509250929050565b600080fd5b6000601f19601f8301169050919050565b7f4e487b7100000000000000000000000000000000000000000000000000000000600052604160045260246000fd5b611d3382611cea565b810181811067ffffffffffffffff82111715611d5257611d51611cfb565b5b80604052505050565b6000611d65611917565b9050611d718282611d2a565b919050565b600067ffffffffffffffff821115611d9157611d90611cfb565b5b611d9a82611cea565b9050602081019050919050565b82818337600083830152505050565b6000611dc9611dc484611d76565b611d5b565b905082815260208101848484011115611de557611de4611ce5565b5b611df0848285611da7565b509392505050565b600082601f830112611e0d57611e0c611a4c565b5b8135611e1d848260208601611db6565b91505092915050565b600060208284031215611e3c57611e3b611921565b5b600082013567ffffffffffffffff811115611e5a57611e59611926565b5b611e6684828501611df8565b91505092915050565b6000611e7a82611be8565b9050919050565b611e8a81611e6f565b82525050565b6000602082019050611ea56000830184611e81565b92915050565b600081519050919050565b600082825260208201905092915050565b60005b83811015611ee5578082015181840152602081019050611eca565b83811115611ef4576000848401525b50505050565b6000611f0582611eab565b611f0f8185611eb6565b9350611f1f818560208601611ec7565b611f2881611cea565b840191505092915050565b60006020820190508181036000830152611f4d8184611efa565b905092915050565b7f6e6f7420676f7665726e6f720000000000000000000000000000000000000000600082015250565b6000611f8b600c83611eb6565b9150611f9682611f55565b602082019050919050565b60006020820190508181036000830152611fba81611f7e565b9050919050565b600081519050611fd081611a20565b92915050565b600060208284031215611fec57611feb611921565b5b6000611ffa84828501611fc1565b91505092915050565b7f6d696e742d69732d6e6f742d656e61626c656400000000000000000000000000600082015250565b6000612039601383611eb6565b915061204482612003565b602082019050919050565b600060208201905081810360008301526120688161202c565b9050919050565b7f616c72656164792d6d696e7465642d64736b0000000000000000000000000000600082015250565b60006120a5601283611eb6565b91506120b08261206f565b602082019050919050565b600060208201905081810360008301526120d481612098565b9050919050565b7f6d61782d737570706c792d726561636865640000000000000000000000000000600082015250565b6000612111601283611eb6565b915061211c826120db565b602082019050919050565b6000602082019050818103600083015261214081612104565b9050919050565b61215081611a16565b82525050565b600060408201905061216b60008301856119ec565b6121786020830184612147565b9392505050565b612188816119b6565b811461219357600080fd5b50565b6000815190506121a58161217f565b92915050565b6000602082840312156121c1576121c0611921565b5b60006121cf84828501612196565b91505092915050565b50565b60006121e8600083611eb6565b91506121f3826121d8565b600082019050919050565b600060a08201905061221360008301876119ec565b61222060208301866119ec565b61222d6040830185612147565b818103606083015261223e816121db565b905061224d60808301846119ec565b95945050505050565b600060808201905061226b60008301876119ec565b6122786020830186612147565b61228560408301856119ec565b61229260608301846119ec565b95945050505050565b60006122a68261194b565b9050919050565b6122b68161229b565b81146122c157600080fd5b50565b6000815190506122d3816122ad565b92915050565b6000602082840312156122ef576122ee611921565b5b60006122fd848285016122c4565b91505092915050565b600060408201905061231b60008301856119ec565b61232860208301846119ec565b9392505050565b7f696e76616c69642070726f706f73656420676f7665726e6f7200000000000000600082015250565b6000612365601983611eb6565b91506123708261232f565b602082019050919050565b6000602082019050818103600083015261239481612358565b9050919050565b7f6e6f74207468652070726f706f73656420676f7665726e6f7200000000000000600082015250565b60006123d1601983611eb6565b91506123dc8261239b565b602082019050919050565b60006020820190508181036000830152612400816123c4565b9050919050565b7f5361666545524332303a204552433230206f7065726174696f6e20646964206e60008201527f6f74207375636365656400000000000000000000000000000000000000000000602082015250565b6000612463602a83611eb6565b915061246e82612407565b604082019050919050565b6000602082019050818103600083015261249281612456565b9050919050565b7f416464726573733a20696e73756666696369656e742062616c616e636520666f60008201527f722063616c6c0000000000000000000000000000000000000000000000000000602082015250565b60006124f5602683611eb6565b915061250082612499565b604082019050919050565b60006020820190508181036000830152612524816124e8565b9050919050565b7f416464726573733a2063616c6c20746f206e6f6e2d636f6e7472616374000000600082015250565b6000612561601d83611eb6565b915061256c8261252b565b602082019050919050565b6000602082019050818103600083015261259081612554565b9050919050565b600081519050919050565b600081905092915050565b60006125b882612597565b6125c281856125a2565b93506125d2818560208601611ec7565b80840191505092915050565b60006125ea82846125ad565b91508190509291505056fea264697066735822122008bc04dbe454096511b881336d00ba80d5c53a930595c89e338cf4700e760cc264736f6c634300080f0033",
  "devdoc": {
    "kind": "dev",
    "methods": {
      "acceptGovernorship()": {
        "details": "Allows new governor to accept governorship of the contract."
      },
      "burn(uint256)": {
        "details": "Below burn function will only work if this contract is added as whitelistedCallers in CapsuleMinter.",
        "params": {
          "id_": "DSK id to burn"
        }
      },
      "mint()": {
        "details": "This contract should be listed as whitelistedCallers in Capsule Minter"
      },
      "onERC721Received(address,address,uint256,bytes)": {
        "details": "This function enables this contract to receive ERC721 tokens"
      },
      "transferCollectionOwnership(address)": {
        "params": {
          "newOwner_": "Address of new owner"
        }
      },
      "transferGovernorship(address)": {
        "details": "Transfers governorship of the contract to a new account (`proposedGovernor`). Can only be called by the current governor."
      },
      "updateBaseURI(string)": {
        "params": {
          "baseURI_": "New baseURI string"
        }
      },
      "updateMetamaster(address)": {
        "params": {
          "metamaster_": "Address of new metamaster"
        }
      },
      "updateRoyaltyConfig(address,uint256)": {
        "params": {
          "royaltyRate_": "Royalty rate in Basis Points. ie. 100 = 1%, 10_000 = 100%",
          "royaltyReceiver_": "Address of royalty receiver"
        }
      }
    },
    "title": "Dollar Store Kids",
    "version": 1
  },
  "userdoc": {
    "kind": "user",
    "methods": {
      "MAX_DSK()": {
        "notice": "Max amount of Dollar Store Kids to release"
      },
      "MINT_PER_ADDRESS()": {
        "notice": "Allowed Dollar Store Kids mints per address"
      },
      "USDC()": {
        "notice": "Input token for the Dollar Store Kids"
      },
      "alreadyMinted(address)": {
        "notice": "Mapping of addresses who have minted."
      },
      "burn(uint256)": {
        "notice": "Burn a DSK and get 1 USDC back"
      },
      "capsuleCollection()": {
        "notice": "Dollar Store Kids collection"
      },
      "claimCollectionBurnerRole()": {
        "notice": "Update collection burner. Add self address as collection burner for DSK"
      },
      "isMintEnabled()": {
        "notice": "Flag indicating whether the Dollar Store Kids mint is enabled."
      },
      "mint()": {
        "notice": "Mint a DSK to caller address"
      },
      "sweep(address)": {
        "notice": "onlyGovernor:: Sweep given token to governor address"
      },
      "toggleMint()": {
        "notice": "onlyGovernor:: Toggle minting status of the Dollar Store Kids"
      },
      "transferCollectionOwnership(address)": {
        "notice": "onlyGovernor:: Transfer ownership of the Dollar Store Kids Capsule collection"
      },
      "updateBaseURI(string)": {
        "notice": "onlyGovernor:: Set the collection baseURI"
      },
      "updateMetamaster(address)": {
        "notice": "onlyGovernor:: Transfer metamaster of the Dollar Store Kids Capsule collection"
      },
      "updateRoyaltyConfig(address,uint256)": {
        "notice": "onlyGovernor:: Update royalty receiver and rate in Dollar Store Kids collection"
      }
    },
    "version": 1
  },
  "storageLayout": {
    "storage": [
      {
        "astId": 25,
        "contract": "contracts/DollarStoreKidsV2.sol:DollarStoreKidsV2",
        "label": "_initialized",
        "offset": 0,
        "slot": "0",
        "type": "t_uint8"
      },
      {
        "astId": 28,
        "contract": "contracts/DollarStoreKidsV2.sol:DollarStoreKidsV2",
        "label": "_initializing",
        "offset": 1,
        "slot": "0",
        "type": "t_bool"
      },
      {
        "astId": 1969,
        "contract": "contracts/DollarStoreKidsV2.sol:DollarStoreKidsV2",
        "label": "governor",
        "offset": 2,
        "slot": "0",
        "type": "t_address"
      },
      {
        "astId": 1971,
        "contract": "contracts/DollarStoreKidsV2.sol:DollarStoreKidsV2",
        "label": "proposedGovernor",
        "offset": 0,
        "slot": "1",
        "type": "t_address"
      },
      {
        "astId": 2093,
        "contract": "contracts/DollarStoreKidsV2.sol:DollarStoreKidsV2",
        "label": "__gap",
        "offset": 0,
        "slot": "2",
        "type": "t_array(t_uint256)49_storage"
      },
      {
        "astId": 1656,
        "contract": "contracts/DollarStoreKidsV2.sol:DollarStoreKidsV2",
        "label": "isMintEnabled",
        "offset": 0,
        "slot": "51",
        "type": "t_bool"
      },
      {
        "astId": 1661,
        "contract": "contracts/DollarStoreKidsV2.sol:DollarStoreKidsV2",
        "label": "alreadyMinted",
        "offset": 0,
        "slot": "52",
        "type": "t_mapping(t_address,t_bool)"
      }
    ],
    "types": {
      "t_address": {
        "encoding": "inplace",
        "label": "address",
        "numberOfBytes": "20"
      },
      "t_array(t_uint256)49_storage": {
        "base": "t_uint256",
        "encoding": "inplace",
        "label": "uint256[49]",
        "numberOfBytes": "1568"
      },
      "t_bool": {
        "encoding": "inplace",
        "label": "bool",
        "numberOfBytes": "1"
      },
      "t_mapping(t_address,t_bool)": {
        "encoding": "mapping",
        "key": "t_address",
        "label": "mapping(address => bool)",
        "numberOfBytes": "32",
        "value": "t_bool"
      },
      "t_uint256": {
        "encoding": "inplace",
        "label": "uint256",
        "numberOfBytes": "32"
      },
      "t_uint8": {
        "encoding": "inplace",
        "label": "uint8",
        "numberOfBytes": "1"
      }
    }
  }
}